{
  "contractName": "Voting",
  "abi": [
    {
      "anonymous": false,
      "inputs": [
        {
          "indexed": true,
          "internalType": "address",
          "name": "previousOwner",
          "type": "address"
        },
        {
          "indexed": true,
          "internalType": "address",
          "name": "newOwner",
          "type": "address"
        }
      ],
      "name": "OwnershipTransferred",
      "type": "event"
    },
    {
      "anonymous": false,
      "inputs": [
        {
          "indexed": false,
          "internalType": "uint256",
          "name": "proposalId",
          "type": "uint256"
        }
      ],
      "name": "ProposalRegistered",
      "type": "event"
    },
    {
      "anonymous": false,
      "inputs": [
        {
          "indexed": false,
          "internalType": "address",
          "name": "voter",
          "type": "address"
        },
        {
          "indexed": false,
          "internalType": "uint256",
          "name": "proposalId",
          "type": "uint256"
        }
      ],
      "name": "Voted",
      "type": "event"
    },
    {
      "anonymous": false,
      "inputs": [
        {
          "indexed": false,
          "internalType": "address",
          "name": "voterAddress",
          "type": "address"
        }
      ],
      "name": "VoterRegistered",
      "type": "event"
    },
    {
      "anonymous": false,
      "inputs": [
        {
          "indexed": false,
          "internalType": "enum Voting.WorkflowStatus",
          "name": "previousStatus",
          "type": "uint8"
        },
        {
          "indexed": false,
          "internalType": "enum Voting.WorkflowStatus",
          "name": "newStatus",
          "type": "uint8"
        }
      ],
      "name": "WorkflowStatusChange",
      "type": "event"
    },
    {
      "inputs": [],
      "name": "owner",
      "outputs": [
        {
          "internalType": "address",
          "name": "",
          "type": "address"
        }
      ],
      "stateMutability": "view",
      "type": "function",
      "constant": true
    },
    {
      "inputs": [],
      "name": "renounceOwnership",
      "outputs": [],
      "stateMutability": "nonpayable",
      "type": "function"
    },
    {
      "inputs": [
        {
          "internalType": "address",
          "name": "newOwner",
          "type": "address"
        }
      ],
      "name": "transferOwnership",
      "outputs": [],
      "stateMutability": "nonpayable",
      "type": "function"
    },
    {
      "inputs": [],
      "name": "winningProposalID",
      "outputs": [
        {
          "internalType": "uint256",
          "name": "",
          "type": "uint256"
        }
      ],
      "stateMutability": "view",
      "type": "function",
      "constant": true
    },
    {
      "inputs": [],
      "name": "workflowStatus",
      "outputs": [
        {
          "internalType": "enum Voting.WorkflowStatus",
          "name": "",
          "type": "uint8"
        }
      ],
      "stateMutability": "view",
      "type": "function",
      "constant": true
    },
    {
      "inputs": [
        {
          "internalType": "address",
          "name": "_addr",
          "type": "address"
        }
      ],
      "name": "getVoter",
      "outputs": [
        {
          "components": [
            {
              "internalType": "bool",
              "name": "isRegistered",
              "type": "bool"
            },
            {
              "internalType": "bool",
              "name": "hasVoted",
              "type": "bool"
            },
            {
              "internalType": "uint256",
              "name": "votedProposalId",
              "type": "uint256"
            }
          ],
          "internalType": "struct Voting.Voter",
          "name": "",
          "type": "tuple"
        }
      ],
      "stateMutability": "view",
      "type": "function",
      "constant": true
    },
    {
      "inputs": [
        {
          "internalType": "uint256",
          "name": "_id",
          "type": "uint256"
        }
      ],
      "name": "getOneProposal",
      "outputs": [
        {
          "components": [
            {
              "internalType": "string",
              "name": "description",
              "type": "string"
            },
            {
              "internalType": "uint256",
              "name": "voteCount",
              "type": "uint256"
            }
          ],
          "internalType": "struct Voting.Proposal",
          "name": "",
          "type": "tuple"
        }
      ],
      "stateMutability": "view",
      "type": "function",
      "constant": true
    },
    {
      "inputs": [],
      "name": "getProposals",
      "outputs": [
        {
          "components": [
            {
              "internalType": "string",
              "name": "description",
              "type": "string"
            },
            {
              "internalType": "uint256",
              "name": "voteCount",
              "type": "uint256"
            }
          ],
          "internalType": "struct Voting.Proposal[]",
          "name": "",
          "type": "tuple[]"
        }
      ],
      "stateMutability": "view",
      "type": "function",
      "constant": true
    },
    {
      "inputs": [
        {
          "internalType": "address",
          "name": "_addr",
          "type": "address"
        }
      ],
      "name": "addVoter",
      "outputs": [],
      "stateMutability": "nonpayable",
      "type": "function"
    },
    {
      "inputs": [
        {
          "internalType": "string",
          "name": "_desc",
          "type": "string"
        }
      ],
      "name": "addProposal",
      "outputs": [],
      "stateMutability": "nonpayable",
      "type": "function"
    },
    {
      "inputs": [
        {
          "internalType": "uint256",
          "name": "_id",
          "type": "uint256"
        }
      ],
      "name": "setVote",
      "outputs": [],
      "stateMutability": "nonpayable",
      "type": "function"
    },
    {
      "inputs": [],
      "name": "startProposalsRegistering",
      "outputs": [],
      "stateMutability": "nonpayable",
      "type": "function"
    },
    {
      "inputs": [],
      "name": "endProposalsRegistering",
      "outputs": [],
      "stateMutability": "nonpayable",
      "type": "function"
    },
    {
      "inputs": [],
      "name": "startVotingSession",
      "outputs": [],
      "stateMutability": "nonpayable",
      "type": "function"
    },
    {
      "inputs": [],
      "name": "endVotingSession",
      "outputs": [],
      "stateMutability": "nonpayable",
      "type": "function"
    },
    {
      "inputs": [],
      "name": "tallyVotes",
      "outputs": [],
      "stateMutability": "nonpayable",
      "type": "function"
    }
  ],
  "bytecode": "0x60806040523480156200001157600080fd5b5062000032620000266200003860201b60201c565b6200004060201b60201c565b62000104565b600033905090565b60008060009054906101000a900473ffffffffffffffffffffffffffffffffffffffff169050816000806101000a81548173ffffffffffffffffffffffffffffffffffffffff021916908373ffffffffffffffffffffffffffffffffffffffff1602179055508173ffffffffffffffffffffffffffffffffffffffff168173ffffffffffffffffffffffffffffffffffffffff167f8be0079c531659141344cd1fd0a4f28419497f9722a3daafe3b4186f6b6457e060405160405180910390a35050565b61276180620001146000396000f3fe608060405234801561001057600080fd5b50600436106101005760003560e01c8063a7bfab1611610097578063d4f50f9811610066578063d4f50f9814610217578063ee74c67814610247578063f2fde38b14610251578063f4ab9adf1461026d57610100565b8063a7bfab16146101db578063bdc01431146101e5578063c7038a4e14610203578063c88af42f1461020d57610100565b8063715018a6116100d3578063715018a6146101655780638da5cb5b1461016f578063a1edffa21461018d578063a2788cce146101ab57610100565b8063230796ae146101055780632fdae3c514610121578063378a21781461013d57806362564c4814610147575b600080fd5b61011f600480360381019061011a919061163c565b610289565b005b61013b600480360381019061013691906116ce565b6105e0565b005b610145610863565b005b61014f610949565b60405161015c91906118b9565b60405180910390f35b61016d610ad3565b005b610177610ae7565b604051610184919061191c565b60405180910390f35b610195610b10565b6040516101a291906119ae565b60405180910390f35b6101c560048036038101906101c0919061163c565b610b23565b6040516101d29190611a06565b60405180910390f35b6101e3610c8a565b005b6101ed610d70565b6040516101fa9190611a37565b60405180910390f35b61020b610d76565b005b610215610ef1565b005b610231600480360381019061022c9190611a7e565b610fd6565b60405161023e9190611b08565b60405180910390f35b61024f6110fe565b005b61026b60048036038101906102669190611a7e565b6111e4565b005b61028760048036038101906102829190611a7e565b611267565b005b600560003373ffffffffffffffffffffffffffffffffffffffff1673ffffffffffffffffffffffffffffffffffffffff16815260200190815260200160002060000160009054906101000a900460ff16610318576040517f08c379a000000000000000000000000000000000000000000000000000000000815260040161030f90611b80565b60405180910390fd5b6003600581111561032c5761032b611937565b5b600260009054906101000a900460ff16600581111561034e5761034d611937565b5b1461038e576040517f08c379a000000000000000000000000000000000000000000000000000000000815260040161038590611c12565b60405180910390fd5b60011515600560003373ffffffffffffffffffffffffffffffffffffffff1673ffffffffffffffffffffffffffffffffffffffff16815260200190815260200160002060000160019054906101000a900460ff16151503610424576040517f08c379a000000000000000000000000000000000000000000000000000000000815260040161041b90611c7e565b60405180910390fd5b600380549050811061046b576040517f08c379a000000000000000000000000000000000000000000000000000000000815260040161046290611cea565b60405180910390fd5b80600560003373ffffffffffffffffffffffffffffffffffffffff1673ffffffffffffffffffffffffffffffffffffffff168152602001908152602001600020600101819055506001600560003373ffffffffffffffffffffffffffffffffffffffff1673ffffffffffffffffffffffffffffffffffffffff16815260200190815260200160002060000160016101000a81548160ff0219169083151502179055506003818154811061052157610520611d0a565b5b9060005260206000209060020201600101600081548092919061054390611d68565b919050555060036001548154811061055e5761055d611d0a565b5b9060005260206000209060020201600101546003828154811061058457610583611d0a565b5b90600052602060002090600202016001015411156105a457806001819055505b7f4d99b957a2bc29a30ebd96a7be8e68fe50a3c701db28a91436490b7d53870ca433826040516105d5929190611db0565b60405180910390a150565b600560003373ffffffffffffffffffffffffffffffffffffffff1673ffffffffffffffffffffffffffffffffffffffff16815260200190815260200160002060000160009054906101000a900460ff1661066f576040517f08c379a000000000000000000000000000000000000000000000000000000000815260040161066690611b80565b60405180910390fd5b6001600581111561068357610682611937565b5b600260009054906101000a900460ff1660058111156106a5576106a4611937565b5b146106e5576040517f08c379a00000000000000000000000000000000000000000000000000000000081526004016106dc90611e25565b60405180910390fd5b6040516020016106f490611e6b565b60405160208183030381529060405280519060200120828260405160200161071d929190611ec7565b6040516020818303038152906040528051906020012003610773576040517f08c379a000000000000000000000000000000000000000000000000000000000815260040161076a90611f5d565b60405180910390fd5b61077b6115bd565b82828080601f016020809104026020016040519081016040528093929190818152602001838380828437600081840152601f19601f8201169050808301925050505050505081600001819052506003819080600181540180825580915050600190039060005260206000209060020201600090919091909150600082015181600001908161080991906121b8565b506020820151816001015550507f92e393e9b54e2f801d3ea4beb0c5e71a21cc34a5d34b77d0fb8a3aa1650dc18f6001600380549050610849919061228a565b6040516108569190611a37565b60405180910390a1505050565b61086b611473565b6004600581111561087f5761087e611937565b5b600260009054906101000a900460ff1660058111156108a1576108a0611937565b5b146108e1576040517f08c379a00000000000000000000000000000000000000000000000000000000081526004016108d890612330565b60405180910390fd5b6005600260006101000a81548160ff0219169083600581111561090757610906611937565b5b02179055507f0a97a4ee45751e2abf3e4fc8946939630b11b371ea8ae39ccdc3056e98f5cc3f6004600560405161093f929190612350565b60405180910390a1565b6060600560003373ffffffffffffffffffffffffffffffffffffffff1673ffffffffffffffffffffffffffffffffffffffff16815260200190815260200160002060000160009054906101000a900460ff166109da576040517f08c379a00000000000000000000000000000000000000000000000000000000081526004016109d190611b80565b60405180910390fd5b6003805480602002602001604051908101604052809291908181526020016000905b82821015610aca5783829060005260206000209060020201604051806040016040529081600082018054610a2f90611fdb565b80601f0160208091040260200160405190810160405280929190818152602001828054610a5b90611fdb565b8015610aa85780601f10610a7d57610100808354040283529160200191610aa8565b820191906000526020600020905b815481529060010190602001808311610a8b57829003601f168201915b50505050508152602001600182015481525050815260200190600101906109fc565b50505050905090565b610adb611473565b610ae560006114f1565b565b60008060009054906101000a900473ffffffffffffffffffffffffffffffffffffffff16905090565b600260009054906101000a900460ff1681565b610b2b6115bd565b600560003373ffffffffffffffffffffffffffffffffffffffff1673ffffffffffffffffffffffffffffffffffffffff16815260200190815260200160002060000160009054906101000a900460ff16610bba576040517f08c379a0000000000000000000000000000000000000000000000000000000008152600401610bb190611b80565b60405180910390fd5b60038281548110610bce57610bcd611d0a565b5b9060005260206000209060020201604051806040016040529081600082018054610bf790611fdb565b80601f0160208091040260200160405190810160405280929190818152602001828054610c2390611fdb565b8015610c705780601f10610c4557610100808354040283529160200191610c70565b820191906000526020600020905b815481529060010190602001808311610c5357829003601f168201915b505050505081526020016001820154815250509050919050565b610c92611473565b60036005811115610ca657610ca5611937565b5b600260009054906101000a900460ff166005811115610cc857610cc7611937565b5b14610d08576040517f08c379a0000000000000000000000000000000000000000000000000000000008152600401610cff90611c12565b60405180910390fd5b6004600260006101000a81548160ff02191690836005811115610d2e57610d2d611937565b5b02179055507f0a97a4ee45751e2abf3e4fc8946939630b11b371ea8ae39ccdc3056e98f5cc3f60036004604051610d66929190612350565b60405180910390a1565b60015481565b610d7e611473565b60006005811115610d9257610d91611937565b5b600260009054906101000a900460ff166005811115610db457610db3611937565b5b14610df4576040517f08c379a0000000000000000000000000000000000000000000000000000000008152600401610deb906123eb565b60405180910390fd5b6001600260006101000a81548160ff02191690836005811115610e1a57610e19611937565b5b0217905550610e276115bd565b6040518060400160405280600781526020017f47454e4553495300000000000000000000000000000000000000000000000000815250816000018190525060038190806001815401808255809150506001900390600052602060002090600202016000909190919091506000820151816000019081610ea691906121b8565b506020820151816001015550507f0a97a4ee45751e2abf3e4fc8946939630b11b371ea8ae39ccdc3056e98f5cc3f60006001604051610ee6929190612350565b60405180910390a150565b610ef9611473565b60016005811115610f0d57610f0c611937565b5b600260009054906101000a900460ff166005811115610f2f57610f2e611937565b5b14610f6f576040517f08c379a0000000000000000000000000000000000000000000000000000000008152600401610f669061247d565b60405180910390fd5b60028060006101000a81548160ff02191690836005811115610f9457610f93611937565b5b02179055507f0a97a4ee45751e2abf3e4fc8946939630b11b371ea8ae39ccdc3056e98f5cc3f60016002604051610fcc929190612350565b60405180910390a1565b610fde6115d7565b600560003373ffffffffffffffffffffffffffffffffffffffff1673ffffffffffffffffffffffffffffffffffffffff16815260200190815260200160002060000160009054906101000a900460ff1661106d576040517f08c379a000000000000000000000000000000000000000000000000000000000815260040161106490611b80565b60405180910390fd5b600560008373ffffffffffffffffffffffffffffffffffffffff1673ffffffffffffffffffffffffffffffffffffffff1681526020019081526020016000206040518060600160405290816000820160009054906101000a900460ff161515151581526020016000820160019054906101000a900460ff161515151581526020016001820154815250509050919050565b611106611473565b6002600581111561111a57611119611937565b5b600260009054906101000a900460ff16600581111561113c5761113b611937565b5b1461117c576040517f08c379a00000000000000000000000000000000000000000000000000000000081526004016111739061250f565b60405180910390fd5b6003600260006101000a81548160ff021916908360058111156111a2576111a1611937565b5b02179055507f0a97a4ee45751e2abf3e4fc8946939630b11b371ea8ae39ccdc3056e98f5cc3f600260036040516111da929190612350565b60405180910390a1565b6111ec611473565b600073ffffffffffffffffffffffffffffffffffffffff168173ffffffffffffffffffffffffffffffffffffffff160361125b576040517f08c379a0000000000000000000000000000000000000000000000000000000008152600401611252906125a1565b60405180910390fd5b611264816114f1565b50565b61126f611473565b6000600581111561128357611282611937565b5b600260009054906101000a900460ff1660058111156112a5576112a4611937565b5b146112e5576040517f08c379a00000000000000000000000000000000000000000000000000000000081526004016112dc90612633565b60405180910390fd5b60011515600560008373ffffffffffffffffffffffffffffffffffffffff1673ffffffffffffffffffffffffffffffffffffffff16815260200190815260200160002060000160009054906101000a900460ff1615150361137b576040517f08c379a00000000000000000000000000000000000000000000000000000000081526004016113729061269f565b60405180910390fd5b6001600560008373ffffffffffffffffffffffffffffffffffffffff1673ffffffffffffffffffffffffffffffffffffffff16815260200190815260200160002060000160006101000a81548160ff0219169083151502179055506004819080600181540180825580915050600190039060005260206000200160009091909190916101000a81548173ffffffffffffffffffffffffffffffffffffffff021916908373ffffffffffffffffffffffffffffffffffffffff1602179055507fb6be2187d059cc2a55fe29e0e503b566e1e0f8c8780096e185429350acffd3dd81604051611468919061191c565b60405180910390a150565b61147b6115b5565b73ffffffffffffffffffffffffffffffffffffffff16611499610ae7565b73ffffffffffffffffffffffffffffffffffffffff16146114ef576040517f08c379a00000000000000000000000000000000000000000000000000000000081526004016114e69061270b565b60405180910390fd5b565b60008060009054906101000a900473ffffffffffffffffffffffffffffffffffffffff169050816000806101000a81548173ffffffffffffffffffffffffffffffffffffffff021916908373ffffffffffffffffffffffffffffffffffffffff1602179055508173ffffffffffffffffffffffffffffffffffffffff168173ffffffffffffffffffffffffffffffffffffffff167f8be0079c531659141344cd1fd0a4f28419497f9722a3daafe3b4186f6b6457e060405160405180910390a35050565b600033905090565b604051806040016040528060608152602001600081525090565b6040518060600160405280600015158152602001600015158152602001600081525090565b600080fd5b600080fd5b6000819050919050565b61161981611606565b811461162457600080fd5b50565b60008135905061163681611610565b92915050565b600060208284031215611652576116516115fc565b5b600061166084828501611627565b91505092915050565b600080fd5b600080fd5b600080fd5b60008083601f84011261168e5761168d611669565b5b8235905067ffffffffffffffff8111156116ab576116aa61166e565b5b6020830191508360018202830111156116c7576116c6611673565b5b9250929050565b600080602083850312156116e5576116e46115fc565b5b600083013567ffffffffffffffff81111561170357611702611601565b5b61170f85828601611678565b92509250509250929050565b600081519050919050565b600082825260208201905092915050565b6000819050602082019050919050565b600081519050919050565b600082825260208201905092915050565b60005b83811015611781578082015181840152602081019050611766565b60008484015250505050565b6000601f19601f8301169050919050565b60006117a982611747565b6117b38185611752565b93506117c3818560208601611763565b6117cc8161178d565b840191505092915050565b6117e081611606565b82525050565b60006040830160008301518482036000860152611803828261179e565b915050602083015161181860208601826117d7565b508091505092915050565b600061182f83836117e6565b905092915050565b6000602082019050919050565b600061184f8261171b565b6118598185611726565b93508360208202850161186b85611737565b8060005b858110156118a757848403895281516118888582611823565b945061189383611837565b925060208a0199505060018101905061186f565b50829750879550505050505092915050565b600060208201905081810360008301526118d38184611844565b905092915050565b600073ffffffffffffffffffffffffffffffffffffffff82169050919050565b6000611906826118db565b9050919050565b611916816118fb565b82525050565b6000602082019050611931600083018461190d565b92915050565b7f4e487b7100000000000000000000000000000000000000000000000000000000600052602160045260246000fd5b6006811061197757611976611937565b5b50565b600081905061198882611966565b919050565b60006119988261197a565b9050919050565b6119a88161198d565b82525050565b60006020820190506119c3600083018461199f565b92915050565b600060408301600083015184820360008601526119e6828261179e565b91505060208301516119fb60208601826117d7565b508091505092915050565b60006020820190508181036000830152611a2081846119c9565b905092915050565b611a3181611606565b82525050565b6000602082019050611a4c6000830184611a28565b92915050565b611a5b816118fb565b8114611a6657600080fd5b50565b600081359050611a7881611a52565b92915050565b600060208284031215611a9457611a936115fc565b5b6000611aa284828501611a69565b91505092915050565b60008115159050919050565b611ac081611aab565b82525050565b606082016000820151611adc6000850182611ab7565b506020820151611aef6020850182611ab7565b506040820151611b0260408501826117d7565b50505050565b6000606082019050611b1d6000830184611ac6565b92915050565b600082825260208201905092915050565b7f596f75277265206e6f74206120766f7465720000000000000000000000000000600082015250565b6000611b6a601283611b23565b9150611b7582611b34565b602082019050919050565b60006020820190508181036000830152611b9981611b5d565b9050919050565b7f566f74696e672073657373696f6e20686176656e74207374617274656420796560008201527f7400000000000000000000000000000000000000000000000000000000000000602082015250565b6000611bfc602183611b23565b9150611c0782611ba0565b604082019050919050565b60006020820190508181036000830152611c2b81611bef565b9050919050565b7f596f75206861766520616c726561647920766f74656400000000000000000000600082015250565b6000611c68601683611b23565b9150611c7382611c32565b602082019050919050565b60006020820190508181036000830152611c9781611c5b565b9050919050565b7f50726f706f73616c206e6f7420666f756e640000000000000000000000000000600082015250565b6000611cd4601283611b23565b9150611cdf82611c9e565b602082019050919050565b60006020820190508181036000830152611d0381611cc7565b9050919050565b7f4e487b7100000000000000000000000000000000000000000000000000000000600052603260045260246000fd5b7f4e487b7100000000000000000000000000000000000000000000000000000000600052601160045260246000fd5b6000611d7382611606565b91507fffffffffffffffffffffffffffffffffffffffffffffffffffffffffffffffff8203611da557611da4611d39565b5b600182019050919050565b6000604082019050611dc5600083018561190d565b611dd26020830184611a28565b9392505050565b7f50726f706f73616c7320617265206e6f7420616c6c6f77656420796574000000600082015250565b6000611e0f601d83611b23565b9150611e1a82611dd9565b602082019050919050565b60006020820190508181036000830152611e3e81611e02565b9050919050565b50565b6000611e55600083611b23565b9150611e6082611e45565b600082019050919050565b60006020820190508181036000830152611e8481611e48565b9050919050565b82818337600083830152505050565b6000611ea68385611b23565b9350611eb3838584611e8b565b611ebc8361178d565b840190509392505050565b60006020820190508181036000830152611ee2818486611e9a565b90509392505050565b7f566f7573206e6520706f7576657a20706173206e65207269656e2070726f706f60008201527f7365720000000000000000000000000000000000000000000000000000000000602082015250565b6000611f47602383611b23565b9150611f5282611eeb565b604082019050919050565b60006020820190508181036000830152611f7681611f3a565b9050919050565b7f4e487b7100000000000000000000000000000000000000000000000000000000600052604160045260246000fd5b7f4e487b7100000000000000000000000000000000000000000000000000000000600052602260045260246000fd5b60006002820490506001821680611ff357607f821691505b60208210810361200657612005611fac565b5b50919050565b60008190508160005260206000209050919050565b60006020601f8301049050919050565b600082821b905092915050565b60006008830261206e7fffffffffffffffffffffffffffffffffffffffffffffffffffffffffffffffff82612031565b6120788683612031565b95508019841693508086168417925050509392505050565b6000819050919050565b60006120b56120b06120ab84611606565b612090565b611606565b9050919050565b6000819050919050565b6120cf8361209a565b6120e36120db826120bc565b84845461203e565b825550505050565b600090565b6120f86120eb565b6121038184846120c6565b505050565b5b818110156121275761211c6000826120f0565b600181019050612109565b5050565b601f82111561216c5761213d8161200c565b61214684612021565b81016020851015612155578190505b61216961216185612021565b830182612108565b50505b505050565b600082821c905092915050565b600061218f60001984600802612171565b1980831691505092915050565b60006121a8838361217e565b9150826002028217905092915050565b6121c182611747565b67ffffffffffffffff8111156121da576121d9611f7d565b5b6121e48254611fdb565b6121ef82828561212b565b600060209050601f8311600181146122225760008415612210578287015190505b61221a858261219c565b865550612282565b601f1984166122308661200c565b60005b8281101561225857848901518255600182019150602085019450602081019050612233565b868310156122755784890151612271601f89168261217e565b8355505b6001600288020188555050505b505050505050565b600061229582611606565b91506122a083611606565b92508282039050818111156122b8576122b7611d39565b5b92915050565b7f43757272656e7420737461747573206973206e6f7420766f74696e672073657360008201527f73696f6e20656e64656400000000000000000000000000000000000000000000602082015250565b600061231a602a83611b23565b9150612325826122be565b604082019050919050565b600060208201905081810360008301526123498161230d565b9050919050565b6000604082019050612365600083018561199f565b612372602083018461199f565b9392505050565b7f5265676973746572696e672070726f706f73616c732063616e7420626520737460008201527f6172746564206e6f770000000000000000000000000000000000000000000000602082015250565b60006123d5602983611b23565b91506123e082612379565b604082019050919050565b60006020820190508181036000830152612404816123c8565b9050919050565b7f5265676973746572696e672070726f706f73616c7320686176656e742073746160008201527f7274656420796574000000000000000000000000000000000000000000000000602082015250565b6000612467602883611b23565b91506124728261240b565b604082019050919050565b600060208201905081810360008301526124968161245a565b9050919050565b7f5265676973746572696e672070726f706f73616c73207068617365206973206e60008201527f6f742066696e6973686564000000000000000000000000000000000000000000602082015250565b60006124f9602b83611b23565b91506125048261249d565b604082019050919050565b60006020820190508181036000830152612528816124ec565b9050919050565b7f4f776e61626c653a206e6577206f776e657220697320746865207a65726f206160008201527f6464726573730000000000000000000000000000000000000000000000000000602082015250565b600061258b602683611b23565b91506125968261252f565b604082019050919050565b600060208201905081810360008301526125ba8161257e565b9050919050565b7f566f7465727320726567697374726174696f6e206973206e6f74206f70656e2060008201527f7965740000000000000000000000000000000000000000000000000000000000602082015250565b600061261d602383611b23565b9150612628826125c1565b604082019050919050565b6000602082019050818103600083015261264c81612610565b9050919050565b7f416c726561647920726567697374657265640000000000000000000000000000600082015250565b6000612689601283611b23565b915061269482612653565b602082019050919050565b600060208201905081810360008301526126b88161267c565b9050919050565b7f4f776e61626c653a2063616c6c6572206973206e6f7420746865206f776e6572600082015250565b60006126f5602083611b23565b9150612700826126bf565b602082019050919050565b60006020820190508181036000830152612724816126e8565b905091905056fea2646970667358221220ff501314e4380a575ddecb9b34c06f30f19c400af167c405cbcb22a06405f70f64736f6c63430008110033",
  "immutableReferences": {},
  "source": "// SPDX-License-Identifier: MIT\n\npragma solidity 0.8.17;\nimport \"../node_modules/@openzeppelin/contracts/access/Ownable.sol\";\n\n/**\n*@dev implementation voting ssystem \n\n*\n */\n\ncontract Voting is Ownable {\n\n    uint public winningProposalID;\n    \n    struct Voter {\n        bool isRegistered;\n        bool hasVoted;\n        uint votedProposalId;\n    }\n\n    struct Proposal {\n        string description;\n        uint voteCount;\n    }\n\n    enum  WorkflowStatus {\n        RegisteringVoters,\n        ProposalsRegistrationStarted,\n        ProposalsRegistrationEnded,\n        VotingSessionStarted,\n        VotingSessionEnded,\n        VotesTallied\n    }\n\n    WorkflowStatus public workflowStatus;\n    Proposal[] proposalsArray;\n    address[] addressVoters; // a retirer aussi\n    mapping (address => Voter) voters;\n\n\n    event VoterRegistered(address voterAddress); \n    event WorkflowStatusChange(WorkflowStatus previousStatus, WorkflowStatus newStatus);\n    event ProposalRegistered(uint proposalId);\n    event Voted (address voter, uint proposalId);\n    \n\n    /**\n    *@dev limit access on fonction only voter\n\n    * verify address on this person who is registered in mapping voters\n    *\n     */\n    modifier onlyVoters() {\n        require(voters[msg.sender].isRegistered, \"You're not a voter\");\n        _;\n    }\n\n\n\n    // on peut faire un modifier pour les tats\n\n    // ::::::::::::: GETTERS ::::::::::::: //\n\n\n    /**\n    *@dev Set the value {_addr} and return a voter\n\n    * this function is access if person is a voter \n    *\n     */\n    function getVoter(address _addr) external onlyVoters view returns (Voter memory) {\n        return voters[_addr];\n    }\n    \n    /**\n    *@dev Set the value {_id} and return a voter\n\n    * this function is access if person is a voter \n    *\n     */\n    function getOneProposal(uint256 _id) external onlyVoters view returns (Proposal memory) {\n        return proposalsArray[_id];\n    }\n\n\n    function getProposals() external onlyVoters view returns (Proposal[] memory) {\n        return proposalsArray;\n    }\n \n    // ::::::::::::: REGISTRATION ::::::::::::: // \n\n    function addVoter(address _addr) external onlyOwner {\n        require(workflowStatus == WorkflowStatus.RegisteringVoters, 'Voters registration is not open yet');\n        require(voters[_addr].isRegistered != true, 'Already registered');\n\n        voters[_addr].isRegistered = true;\n        addressVoters.push(_addr);\n        emit VoterRegistered(_addr);\n    }\n \n\n    // ::::::::::::: PROPOSAL ::::::::::::: // \n\n    function addProposal(string calldata _desc) external onlyVoters {\n        require(workflowStatus == WorkflowStatus.ProposalsRegistrationStarted, 'Proposals are not allowed yet');\n        require(keccak256(abi.encode(_desc)) != keccak256(abi.encode(\"\")), 'Vous ne pouvez pas ne rien proposer'); // facultatif\n        // voir que desc est different des autres\n\n        Proposal memory proposal;\n        proposal.description = _desc;\n        proposalsArray.push(proposal);\n        emit ProposalRegistered(proposalsArray.length-1);\n    }\n\n    // ::::::::::::: VOTE ::::::::::::: //\n\n    function setVote( uint _id) external onlyVoters {\n        require(workflowStatus == WorkflowStatus.VotingSessionStarted, 'Voting session havent started yet');\n        require(voters[msg.sender].hasVoted != true, 'You have already voted');\n        require(_id < proposalsArray.length, 'Proposal not found'); // pas oblig, et pas besoin du >0 car uint\n\n        voters[msg.sender].votedProposalId = _id;\n        voters[msg.sender].hasVoted = true;\n        proposalsArray[_id].voteCount++;\n\n        if(proposalsArray[_id].voteCount > proposalsArray[winningProposalID].voteCount ){\n            winningProposalID = _id;\n\n        }\n        emit Voted(msg.sender, _id);\n    }\n\n    // ::::::::::::: STATE ::::::::::::: //\n\n\n    function startProposalsRegistering() external onlyOwner {\n        require(workflowStatus == WorkflowStatus.RegisteringVoters, 'Registering proposals cant be started now');\n        workflowStatus = WorkflowStatus.ProposalsRegistrationStarted;\n        \n        Proposal memory proposal;\n        proposal.description = \"GENESIS\";\n        proposalsArray.push(proposal);\n        \n        emit WorkflowStatusChange(WorkflowStatus.RegisteringVoters, WorkflowStatus.ProposalsRegistrationStarted);\n    }\n\n    function endProposalsRegistering() external onlyOwner {\n        require(workflowStatus == WorkflowStatus.ProposalsRegistrationStarted, 'Registering proposals havent started yet');\n        workflowStatus = WorkflowStatus.ProposalsRegistrationEnded;\n        emit WorkflowStatusChange(WorkflowStatus.ProposalsRegistrationStarted, WorkflowStatus.ProposalsRegistrationEnded);\n    }\n\n    function startVotingSession() external onlyOwner {\n        require(workflowStatus == WorkflowStatus.ProposalsRegistrationEnded, 'Registering proposals phase is not finished');\n        workflowStatus = WorkflowStatus.VotingSessionStarted;\n        emit WorkflowStatusChange(WorkflowStatus.ProposalsRegistrationEnded, WorkflowStatus.VotingSessionStarted);\n    }\n\n    function endVotingSession() external onlyOwner {\n        require(workflowStatus == WorkflowStatus.VotingSessionStarted, 'Voting session havent started yet');\n        workflowStatus = WorkflowStatus.VotingSessionEnded;\n        emit WorkflowStatusChange(WorkflowStatus.VotingSessionStarted, WorkflowStatus.VotingSessionEnded);\n    }\n\n\n   function tallyVotes() external onlyOwner {\n       require(workflowStatus == WorkflowStatus.VotingSessionEnded, \"Current status is not voting session ended\");\n       workflowStatus = WorkflowStatus.VotesTallied;\n       emit WorkflowStatusChange(WorkflowStatus.VotingSessionEnded, WorkflowStatus.VotesTallied);\n    }\n}\n",
  "sourcePath": "/home/charles/TP3-voting-dapps/truffle/contracts/Voting.sol",
  "compiler": {
    "name": "solc",
    "version": "0.8.17+commit.8df45f5f.Emscripten.clang"
  },
  "schemaVersion": "3.4.10",
  "updatedAt": "2022-11-22T17:03:13.761Z",
  "networkType": "ethereum",
  "devdoc": {
    "details": "implementation voting ssystem ",
    "kind": "dev",
    "methods": {
      "getOneProposal(uint256)": {
        "details": "Set the value {_id} and return a voter this function is access if person is a voter "
      },
      "getVoter(address)": {
        "details": "Set the value {_addr} and return a voter this function is access if person is a voter "
      },
      "owner()": {
        "details": "Returns the address of the current owner."
      },
      "renounceOwnership()": {
        "details": "Leaves the contract without owner. It will not be possible to call `onlyOwner` functions anymore. Can only be called by the current owner. NOTE: Renouncing ownership will leave the contract without an owner, thereby removing any functionality that is only available to the owner."
      },
      "transferOwnership(address)": {
        "details": "Transfers ownership of the contract to a new account (`newOwner`). Can only be called by the current owner."
      }
    },
    "version": 1
  },
  "userdoc": {
    "kind": "user",
    "methods": {},
    "version": 1
  }
}